{
  "contractName": "ManagementUser",
  "abi": [
    {
      "anonymous": false,
      "inputs": [
        {
          "indexed": true,
          "internalType": "address",
          "name": "_address",
          "type": "address"
        },
        {
          "indexed": false,
          "internalType": "string",
          "name": "_name",
          "type": "string"
        },
        {
          "indexed": false,
          "internalType": "int256",
          "name": "_document",
          "type": "int256"
        },
        {
          "indexed": false,
          "internalType": "string",
          "name": "_expedition_documente",
          "type": "string"
        },
        {
          "indexed": false,
          "internalType": "enum ManagementUser.Rol",
          "name": "_role",
          "type": "uint8"
        },
        {
          "indexed": false,
          "internalType": "string",
          "name": "_passwordHash",
          "type": "string"
        },
        {
          "indexed": false,
          "internalType": "bool",
          "name": "_isAuthenticated",
          "type": "bool"
        }
      ],
      "name": "NewUser",
      "type": "event"
    },
    {
      "anonymous": false,
      "inputs": [
        {
          "indexed": true,
          "internalType": "address",
          "name": "userAddress",
          "type": "address"
        },
        {
          "indexed": false,
          "internalType": "int256",
          "name": "document",
          "type": "int256"
        }
      ],
      "name": "UserAuthenticated",
      "type": "event"
    },
    {
      "inputs": [
        {
          "internalType": "int256",
          "name": "",
          "type": "int256"
        }
      ],
      "name": "documentExists",
      "outputs": [
        {
          "internalType": "bool",
          "name": "",
          "type": "bool"
        }
      ],
      "stateMutability": "view",
      "type": "function",
      "constant": true
    },
    {
      "inputs": [
        {
          "internalType": "int256",
          "name": "",
          "type": "int256"
        }
      ],
      "name": "documentToAddress",
      "outputs": [
        {
          "internalType": "address",
          "name": "",
          "type": "address"
        }
      ],
      "stateMutability": "view",
      "type": "function",
      "constant": true
    },
    {
      "inputs": [
        {
          "internalType": "address",
          "name": "",
          "type": "address"
        }
      ],
      "name": "familyHistories",
      "outputs": [
        {
          "internalType": "enum ManagementUser.Affirmations",
          "name": "diabetes",
          "type": "uint8"
        },
        {
          "internalType": "enum ManagementUser.Affirmations",
          "name": "hypertension",
          "type": "uint8"
        },
        {
          "internalType": "enum ManagementUser.Affirmations",
          "name": "heart",
          "type": "uint8"
        },
        {
          "internalType": "enum ManagementUser.Affirmations",
          "name": "respiratory",
          "type": "uint8"
        },
        {
          "internalType": "enum ManagementUser.Affirmations",
          "name": "alzheimer",
          "type": "uint8"
        },
        {
          "internalType": "enum ManagementUser.Affirmations",
          "name": "cardiovascular",
          "type": "uint8"
        },
        {
          "internalType": "enum ManagementUser.Affirmations",
          "name": "cancer",
          "type": "uint8"
        }
      ],
      "stateMutability": "view",
      "type": "function",
      "constant": true
    },
    {
      "inputs": [
        {
          "internalType": "address",
          "name": "",
          "type": "address"
        }
      ],
      "name": "isUser",
      "outputs": [
        {
          "internalType": "bool",
          "name": "",
          "type": "bool"
        }
      ],
      "stateMutability": "view",
      "type": "function",
      "constant": true
    },
    {
      "inputs": [
        {
          "internalType": "address",
          "name": "",
          "type": "address"
        }
      ],
      "name": "medicalHistories",
      "outputs": [
        {
          "internalType": "enum ManagementUser.Opciones",
          "name": "alcohol",
          "type": "uint8"
        },
        {
          "internalType": "enum ManagementUser.Opciones",
          "name": "smoke",
          "type": "uint8"
        },
        {
          "internalType": "enum ManagementUser.Opciones",
          "name": "physical_activity",
          "type": "uint8"
        },
        {
          "internalType": "enum ManagementUser.Opciones",
          "name": "contraceptives",
          "type": "uint8"
        },
        {
          "internalType": "enum ManagementUser.Affirmations",
          "name": "fracture",
          "type": "uint8"
        },
        {
          "internalType": "string",
          "name": "surgery",
          "type": "string"
        }
      ],
      "stateMutability": "view",
      "type": "function",
      "constant": true
    },
    {
      "inputs": [
        {
          "internalType": "address",
          "name": "",
          "type": "address"
        }
      ],
      "name": "users",
      "outputs": [
        {
          "internalType": "string",
          "name": "name",
          "type": "string"
        },
        {
          "internalType": "string",
          "name": "birthdate",
          "type": "string"
        },
        {
          "internalType": "int256",
          "name": "document",
          "type": "int256"
        },
        {
          "internalType": "string",
          "name": "date_document",
          "type": "string"
        },
        {
          "internalType": "string",
          "name": "email",
          "type": "string"
        },
        {
          "internalType": "enum ManagementUser.Rol",
          "name": "role",
          "type": "uint8"
        },
        {
          "internalType": "string",
          "name": "passwordHash",
          "type": "string"
        },
        {
          "internalType": "bool",
          "name": "isAuthenticated",
          "type": "bool"
        },
        {
          "internalType": "address",
          "name": "medicalHistoryAddress",
          "type": "address"
        },
        {
          "internalType": "address",
          "name": "familyHistoryAddress",
          "type": "address"
        }
      ],
      "stateMutability": "view",
      "type": "function",
      "constant": true
    },
    {
      "inputs": [
        {
          "internalType": "uint256",
          "name": "",
          "type": "uint256"
        }
      ],
      "name": "usuariosRegistrados",
      "outputs": [
        {
          "internalType": "string",
          "name": "name",
          "type": "string"
        },
        {
          "internalType": "string",
          "name": "birthdate",
          "type": "string"
        },
        {
          "internalType": "int256",
          "name": "document",
          "type": "int256"
        },
        {
          "internalType": "string",
          "name": "date_document",
          "type": "string"
        },
        {
          "internalType": "string",
          "name": "email",
          "type": "string"
        },
        {
          "internalType": "enum ManagementUser.Rol",
          "name": "role",
          "type": "uint8"
        },
        {
          "internalType": "string",
          "name": "passwordHash",
          "type": "string"
        },
        {
          "internalType": "bool",
          "name": "isAuthenticated",
          "type": "bool"
        },
        {
          "internalType": "address",
          "name": "medicalHistoryAddress",
          "type": "address"
        },
        {
          "internalType": "address",
          "name": "familyHistoryAddress",
          "type": "address"
        }
      ],
      "stateMutability": "view",
      "type": "function",
      "constant": true
    },
    {
      "inputs": [
        {
          "internalType": "string",
          "name": "_name",
          "type": "string"
        },
        {
          "internalType": "string",
          "name": "_birthdate",
          "type": "string"
        },
        {
          "internalType": "int256",
          "name": "_document",
          "type": "int256"
        },
        {
          "internalType": "string",
          "name": "_date_document",
          "type": "string"
        },
        {
          "internalType": "string",
          "name": "_email",
          "type": "string"
        },
        {
          "internalType": "enum ManagementUser.Rol",
          "name": "_role",
          "type": "uint8"
        },
        {
          "internalType": "string",
          "name": "_passwordHash",
          "type": "string"
        }
      ],
      "name": "createUser",
      "outputs": [],
      "stateMutability": "nonpayable",
      "type": "function"
    },
    {
      "inputs": [
        {
          "internalType": "int256",
          "name": "_document",
          "type": "int256"
        },
        {
          "internalType": "string",
          "name": "_password",
          "type": "string"
        },
        {
          "internalType": "enum ManagementUser.Rol",
          "name": "_role",
          "type": "uint8"
        }
      ],
      "name": "authenticateUser",
      "outputs": [],
      "stateMutability": "nonpayable",
      "type": "function"
    },
    {
      "inputs": [
        {
          "internalType": "enum ManagementUser.Affirmations",
          "name": "diabetes",
          "type": "uint8"
        },
        {
          "internalType": "enum ManagementUser.Affirmations",
          "name": "hypertension",
          "type": "uint8"
        },
        {
          "internalType": "enum ManagementUser.Affirmations",
          "name": "heart",
          "type": "uint8"
        },
        {
          "internalType": "enum ManagementUser.Affirmations",
          "name": "respiratory",
          "type": "uint8"
        },
        {
          "internalType": "enum ManagementUser.Affirmations",
          "name": "alzheimer",
          "type": "uint8"
        },
        {
          "internalType": "enum ManagementUser.Affirmations",
          "name": "cardiovascular",
          "type": "uint8"
        },
        {
          "internalType": "enum ManagementUser.Affirmations",
          "name": "cancer",
          "type": "uint8"
        },
        {
          "internalType": "address",
          "name": "familyHistoryAddress",
          "type": "address"
        }
      ],
      "name": "setFamilyHistory",
      "outputs": [],
      "stateMutability": "nonpayable",
      "type": "function"
    },
    {
      "inputs": [
        {
          "internalType": "enum ManagementUser.Opciones",
          "name": "alcohol",
          "type": "uint8"
        },
        {
          "internalType": "enum ManagementUser.Opciones",
          "name": "smoke",
          "type": "uint8"
        },
        {
          "internalType": "enum ManagementUser.Opciones",
          "name": "physical_activity",
          "type": "uint8"
        },
        {
          "internalType": "enum ManagementUser.Opciones",
          "name": "contraceptives",
          "type": "uint8"
        },
        {
          "internalType": "enum ManagementUser.Affirmations",
          "name": "fracture",
          "type": "uint8"
        },
        {
          "internalType": "string",
          "name": "surgery",
          "type": "string"
        },
        {
          "internalType": "address",
          "name": "medicalHistoryAddress",
          "type": "address"
        }
      ],
      "name": "setMedicalHistory",
      "outputs": [],
      "stateMutability": "nonpayable",
      "type": "function"
    },
    {
      "inputs": [
        {
          "internalType": "address",
          "name": "familyHistoryAddress",
          "type": "address"
        }
      ],
      "name": "getFamilyHistoryAddress",
      "outputs": [
        {
          "components": [
            {
              "internalType": "enum ManagementUser.Affirmations",
              "name": "diabetes",
              "type": "uint8"
            },
            {
              "internalType": "enum ManagementUser.Affirmations",
              "name": "hypertension",
              "type": "uint8"
            },
            {
              "internalType": "enum ManagementUser.Affirmations",
              "name": "heart",
              "type": "uint8"
            },
            {
              "internalType": "enum ManagementUser.Affirmations",
              "name": "respiratory",
              "type": "uint8"
            },
            {
              "internalType": "enum ManagementUser.Affirmations",
              "name": "alzheimer",
              "type": "uint8"
            },
            {
              "internalType": "enum ManagementUser.Affirmations",
              "name": "cardiovascular",
              "type": "uint8"
            },
            {
              "internalType": "enum ManagementUser.Affirmations",
              "name": "cancer",
              "type": "uint8"
            }
          ],
          "internalType": "struct ManagementUser.FamilyHistory",
          "name": "",
          "type": "tuple"
        }
      ],
      "stateMutability": "view",
      "type": "function",
      "constant": true
    },
    {
      "inputs": [
        {
          "internalType": "address",
          "name": "medicalHistoryAddress",
          "type": "address"
        }
      ],
      "name": "getMedicalHistoryAddress",
      "outputs": [
        {
          "components": [
            {
              "internalType": "enum ManagementUser.Opciones",
              "name": "alcohol",
              "type": "uint8"
            },
            {
              "internalType": "enum ManagementUser.Opciones",
              "name": "smoke",
              "type": "uint8"
            },
            {
              "internalType": "enum ManagementUser.Opciones",
              "name": "physical_activity",
              "type": "uint8"
            },
            {
              "internalType": "enum ManagementUser.Opciones",
              "name": "contraceptives",
              "type": "uint8"
            },
            {
              "internalType": "enum ManagementUser.Affirmations",
              "name": "fracture",
              "type": "uint8"
            },
            {
              "internalType": "string",
              "name": "surgery",
              "type": "string"
            }
          ],
          "internalType": "struct ManagementUser.MedicalHistory",
          "name": "",
          "type": "tuple"
        }
      ],
      "stateMutability": "view",
      "type": "function",
      "constant": true
    },
    {
      "inputs": [],
      "name": "getAllUserNames",
      "outputs": [
        {
          "components": [
            {
              "internalType": "string",
              "name": "name",
              "type": "string"
            },
            {
              "internalType": "string",
              "name": "birthdate",
              "type": "string"
            },
            {
              "internalType": "int256",
              "name": "document",
              "type": "int256"
            },
            {
              "internalType": "string",
              "name": "date_document",
              "type": "string"
            },
            {
              "internalType": "string",
              "name": "email",
              "type": "string"
            },
            {
              "internalType": "enum ManagementUser.Rol",
              "name": "role",
              "type": "uint8"
            },
            {
              "internalType": "string",
              "name": "passwordHash",
              "type": "string"
            },
            {
              "internalType": "bool",
              "name": "isAuthenticated",
              "type": "bool"
            },
            {
              "internalType": "address",
              "name": "medicalHistoryAddress",
              "type": "address"
            },
            {
              "internalType": "address",
              "name": "familyHistoryAddress",
              "type": "address"
            }
          ],
          "internalType": "struct ManagementUser.User[]",
          "name": "",
          "type": "tuple[]"
        }
      ],
      "stateMutability": "view",
      "type": "function",
      "constant": true
    },
    {
      "inputs": [],
      "name": "isUserAuthenticated",
      "outputs": [
        {
          "internalType": "bool",
          "name": "",
          "type": "bool"
        }
      ],
      "stateMutability": "view",
      "type": "function",
      "constant": true
    },
    {
      "inputs": [
        {
          "internalType": "int256",
          "name": "document",
          "type": "int256"
        }
      ],
      "name": "getUserInfoByDocument",
      "outputs": [
        {
          "components": [
            {
              "internalType": "string",
              "name": "name",
              "type": "string"
            },
            {
              "internalType": "string",
              "name": "birthdate",
              "type": "string"
            },
            {
              "internalType": "int256",
              "name": "document",
              "type": "int256"
            },
            {
              "internalType": "string",
              "name": "date_document",
              "type": "string"
            },
            {
              "internalType": "string",
              "name": "email",
              "type": "string"
            },
            {
              "internalType": "enum ManagementUser.Rol",
              "name": "role",
              "type": "uint8"
            },
            {
              "internalType": "string",
              "name": "passwordHash",
              "type": "string"
            },
            {
              "internalType": "bool",
              "name": "isAuthenticated",
              "type": "bool"
            },
            {
              "internalType": "address",
              "name": "medicalHistoryAddress",
              "type": "address"
            },
            {
              "internalType": "address",
              "name": "familyHistoryAddress",
              "type": "address"
            }
          ],
          "internalType": "struct ManagementUser.User",
          "name": "",
          "type": "tuple"
        }
      ],
      "stateMutability": "view",
      "type": "function",
      "constant": true
    }
  ],
  "bytecode": "0x608060405234801561001057600080fd5b5061437d806100206000396000f3fe608060405234801561001057600080fd5b50600436106101005760003560e01c8063a612ebaf11610097578063c679917911610066578063c679917914610314578063c7e3b0a314610330578063d0919e151461034e578063ecc0e7811461037e57610100565b8063a612ebaf14610256578063a87430ba1461028f578063b93cfccb146102c8578063bd39102e146102e457610100565b80637668c027116100d35780637668c027146101d05780637f0f8920146101ec578063840f65511461021c57806392bc43211461023a57610100565b806311a6838a146101055780634209fff114610135578063514fefe3146101655780635aaec91a1461019a575b600080fd5b61011f600480360381019061011a9190612fc1565b6103ae565b60405161012c9190613009565b60405180910390f35b61014f600480360381019061014a9190613082565b6103ce565b60405161015c9190613009565b60405180910390f35b61017f600480360381019061017a9190613082565b6103ee565b60405161019196959493929190613207565b60405180910390f35b6101b460048036038101906101af9190613082565b6104f3565b6040516101c7979695949392919061326f565b60405180910390f35b6101ea60048036038101906101e5919061345d565b610590565b005b61020660048036038101906102019190612fc1565b610866565b60405161021391906136d0565b60405180910390f35b610224610d54565b60405161023191906138aa565b60405180910390f35b610254600480360381019061024f91906138f1565b61119a565b005b610270600480360381019061026b9190613a55565b611b19565b6040516102869a99989796959493929190613aaf565b60405180910390f35b6102a960048036038101906102a49190613082565b611e7f565b6040516102bf9a99989796959493929190613aaf565b60405180910390f35b6102e260048036038101906102dd9190613b6e565b6121d5565b005b6102fe60048036038101906102f99190613082565b612545565b60405161030b9190613cc1565b60405180910390f35b61032e60048036038101906103299190613cdc565b61273b565b005b6103386129cd565b6040516103459190613009565b60405180910390f35b61036860048036038101906103639190612fc1565b612a24565b6040516103759190613d4b565b60405180910390f35b61039860048036038101906103939190613082565b612a57565b6040516103a59190613dfe565b60405180910390f35b60016020528060005260406000206000915054906101000a900460ff1681565b60066020528060005260406000206000915054906101000a900460ff1681565b60036020528060005260406000206000915090508060000160009054906101000a900460ff16908060000160019054906101000a900460ff16908060000160029054906101000a900460ff16908060000160039054906101000a900460ff16908060000160049054906101000a900460ff169080600101805461047090613e4f565b80601f016020809104026020016040519081016040528092919081815260200182805461049c90613e4f565b80156104e95780601f106104be576101008083540402835291602001916104e9565b820191906000526020600020905b8154815290600101906020018083116104cc57829003601f168201915b5050505050905086565b60046020528060005260406000206000915090508060000160009054906101000a900460ff16908060000160019054906101000a900460ff16908060000160029054906101000a900460ff16908060000160039054906101000a900460ff16908060000160049054906101000a900460ff16908060000160059054906101000a900460ff16908060000160069054906101000a900460ff16905087565b6000600360008373ffffffffffffffffffffffffffffffffffffffff1673ffffffffffffffffffffffffffffffffffffffff1681526020019081526020016000209050878160000160006101000a81548160ff021916908360028111156105fa576105f96130af565b5b0217905550868160000160016101000a81548160ff02191690836002811115610626576106256130af565b5b0217905550858160000160026101000a81548160ff02191690836002811115610652576106516130af565b5b0217905550848160000160036101000a81548160ff0219169083600281111561067e5761067d6130af565b5b0217905550838160000160046101000a81548160ff021916908360018111156106aa576106a96130af565b5b0217905550828160010190805190602001906106c7929190612c69565b5080600360008473ffffffffffffffffffffffffffffffffffffffff1673ffffffffffffffffffffffffffffffffffffffff1681526020019081526020016000206000820160009054906101000a900460ff168160000160006101000a81548160ff021916908360028111156107405761073f6130af565b5b02179055506000820160019054906101000a900460ff168160000160016101000a81548160ff0219169083600281111561077d5761077c6130af565b5b02179055506000820160029054906101000a900460ff168160000160026101000a81548160ff021916908360028111156107ba576107b96130af565b5b02179055506000820160039054906101000a900460ff168160000160036101000a81548160ff021916908360028111156107f7576107f66130af565b5b02179055506000820160049054906101000a900460ff168160000160046101000a81548160ff02191690836001811115610834576108336130af565b5b0217905550600182018160010190805461084d90613e4f565b610858929190612cef565b509050505050505050505050565b61086e612d7c565b60006002600084815260200190815260200160002060009054906101000a900473ffffffffffffffffffffffffffffffffffffffff169050600073ffffffffffffffffffffffffffffffffffffffff168173ffffffffffffffffffffffffffffffffffffffff1603610915576040517f08c379a000000000000000000000000000000000000000000000000000000000815260040161090c90613ecc565b60405180910390fd5b6000600560008373ffffffffffffffffffffffffffffffffffffffff1673ffffffffffffffffffffffffffffffffffffffff1681526020019081526020016000206040518061014001604052908160008201805461097290613e4f565b80601f016020809104026020016040519081016040528092919081815260200182805461099e90613e4f565b80156109eb5780601f106109c0576101008083540402835291602001916109eb565b820191906000526020600020905b8154815290600101906020018083116109ce57829003601f168201915b50505050508152602001600182018054610a0490613e4f565b80601f0160208091040260200160405190810160405280929190818152602001828054610a3090613e4f565b8015610a7d5780601f10610a5257610100808354040283529160200191610a7d565b820191906000526020600020905b815481529060010190602001808311610a6057829003601f168201915b5050505050815260200160028201548152602001600382018054610aa090613e4f565b80601f0160208091040260200160405190810160405280929190818152602001828054610acc90613e4f565b8015610b195780601f10610aee57610100808354040283529160200191610b19565b820191906000526020600020905b815481529060010190602001808311610afc57829003601f168201915b50505050508152602001600482018054610b3290613e4f565b80601f0160208091040260200160405190810160405280929190818152602001828054610b5e90613e4f565b8015610bab5780601f10610b8057610100808354040283529160200191610bab565b820191906000526020600020905b815481529060010190602001808311610b8e57829003601f168201915b505050505081526020016005820160009054906101000a900460ff166002811115610bd957610bd86130af565b5b6002811115610beb57610bea6130af565b5b8152602001600682018054610bff90613e4f565b80601f0160208091040260200160405190810160405280929190818152602001828054610c2b90613e4f565b8015610c785780601f10610c4d57610100808354040283529160200191610c78565b820191906000526020600020905b815481529060010190602001808311610c5b57829003601f168201915b505050505081526020016007820160009054906101000a900460ff161515151581526020016007820160019054906101000a900473ffffffffffffffffffffffffffffffffffffffff1673ffffffffffffffffffffffffffffffffffffffff1673ffffffffffffffffffffffffffffffffffffffff1681526020016008820160009054906101000a900473ffffffffffffffffffffffffffffffffffffffff1673ffffffffffffffffffffffffffffffffffffffff1673ffffffffffffffffffffffffffffffffffffffff168152505090508092505050919050565b60606000805480602002602001604051908101604052809291908181526020016000905b82821015611191578382906000526020600020906009020160405180610140016040529081600082018054610dac90613e4f565b80601f0160208091040260200160405190810160405280929190818152602001828054610dd890613e4f565b8015610e255780601f10610dfa57610100808354040283529160200191610e25565b820191906000526020600020905b815481529060010190602001808311610e0857829003601f168201915b50505050508152602001600182018054610e3e90613e4f565b80601f0160208091040260200160405190810160405280929190818152602001828054610e6a90613e4f565b8015610eb75780601f10610e8c57610100808354040283529160200191610eb7565b820191906000526020600020905b815481529060010190602001808311610e9a57829003601f168201915b5050505050815260200160028201548152602001600382018054610eda90613e4f565b80601f0160208091040260200160405190810160405280929190818152602001828054610f0690613e4f565b8015610f535780601f10610f2857610100808354040283529160200191610f53565b820191906000526020600020905b815481529060010190602001808311610f3657829003601f168201915b50505050508152602001600482018054610f6c90613e4f565b80601f0160208091040260200160405190810160405280929190818152602001828054610f9890613e4f565b8015610fe55780601f10610fba57610100808354040283529160200191610fe5565b820191906000526020600020905b815481529060010190602001808311610fc857829003601f168201915b505050505081526020016005820160009054906101000a900460ff166002811115611013576110126130af565b5b6002811115611025576110246130af565b5b815260200160068201805461103990613e4f565b80601f016020809104026020016040519081016040528092919081815260200182805461106590613e4f565b80156110b25780601f10611087576101008083540402835291602001916110b2565b820191906000526020600020905b81548152906001019060200180831161109557829003601f168201915b505050505081526020016007820160009054906101000a900460ff161515151581526020016007820160019054906101000a900473ffffffffffffffffffffffffffffffffffffffff1673ffffffffffffffffffffffffffffffffffffffff1673ffffffffffffffffffffffffffffffffffffffff1681526020016008820160009054906101000a900473ffffffffffffffffffffffffffffffffffffffff1673ffffffffffffffffffffffffffffffffffffffff1673ffffffffffffffffffffffffffffffffffffffff168152505081526020019060010190610d78565b50505050905090565b6001600086815260200190815260200160002060009054906101000a900460ff16156111fb576040517f08c379a00000000000000000000000000000000000000000000000000000000081526004016111f290613f38565b60405180910390fd5b611203612e0f565b60003342604051602001611218929190613fc1565b6040516020818303038152906040528051906020012060601c905081600360008373ffffffffffffffffffffffffffffffffffffffff1673ffffffffffffffffffffffffffffffffffffffff16815260200190815260200160002060008201518160000160006101000a81548160ff0219169083600281111561129e5761129d6130af565b5b021790555060208201518160000160016101000a81548160ff021916908360028111156112ce576112cd6130af565b5b021790555060408201518160000160026101000a81548160ff021916908360028111156112fe576112fd6130af565b5b021790555060608201518160000160036101000a81548160ff0219169083600281111561132e5761132d6130af565b5b021790555060808201518160000160046101000a81548160ff0219169083600181111561135e5761135d6130af565b5b021790555060a082015181600101908051906020019061137f929190612c69565b5090505061138b612e9f565b60003360405160200161139e9190613fed565b6040516020818303038152906040528051906020012060601c905081600460008373ffffffffffffffffffffffffffffffffffffffff1673ffffffffffffffffffffffffffffffffffffffff16815260200190815260200160002060008201518160000160006101000a81548160ff02191690836001811115611424576114236130af565b5b021790555060208201518160000160016101000a81548160ff02191690836001811115611454576114536130af565b5b021790555060408201518160000160026101000a81548160ff02191690836001811115611484576114836130af565b5b021790555060608201518160000160036101000a81548160ff021916908360018111156114b4576114b36130af565b5b021790555060808201518160000160046101000a81548160ff021916908360018111156114e4576114e36130af565b5b021790555060a08201518160000160056101000a81548160ff02191690836001811115611514576115136130af565b5b021790555060c08201518160000160066101000a81548160ff02191690836001811115611544576115436130af565b5b02179055509050506040518061014001604052808c81526020018b81526020018a8152602001898152602001888152602001876002811115611589576115886130af565b5b81526020018681526020016000151581526020018473ffffffffffffffffffffffffffffffffffffffff1681526020018273ffffffffffffffffffffffffffffffffffffffff16815250600560003373ffffffffffffffffffffffffffffffffffffffff1673ffffffffffffffffffffffffffffffffffffffff168152602001908152602001600020600082015181600001908051906020019061162e929190612c69565b50602082015181600101908051906020019061164b929190612c69565b50604082015181600201556060820151816003019080519060200190611672929190612c69565b50608082015181600401908051906020019061168f929190612c69565b5060a08201518160050160006101000a81548160ff021916908360028111156116bb576116ba6130af565b5b021790555060c08201518160060190805190602001906116dc929190612c69565b5060e08201518160070160006101000a81548160ff0219169083151502179055506101008201518160070160016101000a81548173ffffffffffffffffffffffffffffffffffffffff021916908373ffffffffffffffffffffffffffffffffffffffff1602179055506101208201518160080160006101000a81548173ffffffffffffffffffffffffffffffffffffffff021916908373ffffffffffffffffffffffffffffffffffffffff1602179055509050506001600660003373ffffffffffffffffffffffffffffffffffffffff1673ffffffffffffffffffffffffffffffffffffffff16815260200190815260200160002060006101000a81548160ff02191690831515021790555060018060008b815260200190815260200160002060006101000a81548160ff02191690831515021790555033600260008b815260200190815260200160002060006101000a81548173ffffffffffffffffffffffffffffffffffffffff021916908373ffffffffffffffffffffffffffffffffffffffff1602179055506000600560003373ffffffffffffffffffffffffffffffffffffffff1673ffffffffffffffffffffffffffffffffffffffff168152602001908152602001600020908060018154018082558091505060019003906000526020600020906009020160009091909190915060008201816000019080546118e390613e4f565b6118ee929190612cef565b50600182018160010190805461190390613e4f565b61190e929190612cef565b5060028201548160020155600382018160030190805461192d90613e4f565b611938929190612cef565b50600482018160040190805461194d90613e4f565b611958929190612cef565b506005820160009054906101000a900460ff168160050160006101000a81548160ff02191690836002811115611991576119906130af565b5b021790555060068201816006019080546119aa90613e4f565b6119b5929190612cef565b506007820160009054906101000a900460ff168160070160006101000a81548160ff0219169083151502179055506007820160019054906101000a900473ffffffffffffffffffffffffffffffffffffffff168160070160016101000a81548173ffffffffffffffffffffffffffffffffffffffff021916908373ffffffffffffffffffffffffffffffffffffffff1602179055506008820160009054906101000a900473ffffffffffffffffffffffffffffffffffffffff168160080160006101000a81548173ffffffffffffffffffffffffffffffffffffffff021916908373ffffffffffffffffffffffffffffffffffffffff16021790555050503373ffffffffffffffffffffffffffffffffffffffff167fbe5846edf438ea8d2510fadb82a3bbefa3138596ccb36f5f61d966d630251b2a8c8b8b8a8a6000604051611b0496959493929190614008565b60405180910390a25050505050505050505050565b60008181548110611b2957600080fd5b9060005260206000209060090201600091509050806000018054611b4c90613e4f565b80601f0160208091040260200160405190810160405280929190818152602001828054611b7890613e4f565b8015611bc55780601f10611b9a57610100808354040283529160200191611bc5565b820191906000526020600020905b815481529060010190602001808311611ba857829003601f168201915b505050505090806001018054611bda90613e4f565b80601f0160208091040260200160405190810160405280929190818152602001828054611c0690613e4f565b8015611c535780601f10611c2857610100808354040283529160200191611c53565b820191906000526020600020905b815481529060010190602001808311611c3657829003601f168201915b505050505090806002015490806003018054611c6e90613e4f565b80601f0160208091040260200160405190810160405280929190818152602001828054611c9a90613e4f565b8015611ce75780601f10611cbc57610100808354040283529160200191611ce7565b820191906000526020600020905b815481529060010190602001808311611cca57829003601f168201915b505050505090806004018054611cfc90613e4f565b80601f0160208091040260200160405190810160405280929190818152602001828054611d2890613e4f565b8015611d755780601f10611d4a57610100808354040283529160200191611d75565b820191906000526020600020905b815481529060010190602001808311611d5857829003601f168201915b5050505050908060050160009054906101000a900460ff1690806006018054611d9d90613e4f565b80601f0160208091040260200160405190810160405280929190818152602001828054611dc990613e4f565b8015611e165780601f10611deb57610100808354040283529160200191611e16565b820191906000526020600020905b815481529060010190602001808311611df957829003601f168201915b5050505050908060070160009054906101000a900460ff16908060070160019054906101000a900473ffffffffffffffffffffffffffffffffffffffff16908060080160009054906101000a900473ffffffffffffffffffffffffffffffffffffffff1690508a565b6005602052806000526040600020600091509050806000018054611ea290613e4f565b80601f0160208091040260200160405190810160405280929190818152602001828054611ece90613e4f565b8015611f1b5780601f10611ef057610100808354040283529160200191611f1b565b820191906000526020600020905b815481529060010190602001808311611efe57829003601f168201915b505050505090806001018054611f3090613e4f565b80601f0160208091040260200160405190810160405280929190818152602001828054611f5c90613e4f565b8015611fa95780601f10611f7e57610100808354040283529160200191611fa9565b820191906000526020600020905b815481529060010190602001808311611f8c57829003601f168201915b505050505090806002015490806003018054611fc490613e4f565b80601f0160208091040260200160405190810160405280929190818152602001828054611ff090613e4f565b801561203d5780601f106120125761010080835404028352916020019161203d565b820191906000526020600020905b81548152906001019060200180831161202057829003601f168201915b50505050509080600401805461205290613e4f565b80601f016020809104026020016040519081016040528092919081815260200182805461207e90613e4f565b80156120cb5780601f106120a0576101008083540402835291602001916120cb565b820191906000526020600020905b8154815290600101906020018083116120ae57829003601f168201915b5050505050908060050160009054906101000a900460ff16908060060180546120f390613e4f565b80601f016020809104026020016040519081016040528092919081815260200182805461211f90613e4f565b801561216c5780601f106121415761010080835404028352916020019161216c565b820191906000526020600020905b81548152906001019060200180831161214f57829003601f168201915b5050505050908060070160009054906101000a900460ff16908060070160019054906101000a900473ffffffffffffffffffffffffffffffffffffffff16908060080160009054906101000a900473ffffffffffffffffffffffffffffffffffffffff1690508a565b6000600460008373ffffffffffffffffffffffffffffffffffffffff1673ffffffffffffffffffffffffffffffffffffffff1681526020019081526020016000209050888160000160006101000a81548160ff0219169083600181111561223f5761223e6130af565b5b0217905550878160000160016101000a81548160ff0219169083600181111561226b5761226a6130af565b5b0217905550868160000160026101000a81548160ff02191690836001811115612297576122966130af565b5b0217905550858160000160036101000a81548160ff021916908360018111156122c3576122c26130af565b5b0217905550848160000160046101000a81548160ff021916908360018111156122ef576122ee6130af565b5b0217905550838160000160056101000a81548160ff0219169083600181111561231b5761231a6130af565b5b0217905550828160000160066101000a81548160ff02191690836001811115612347576123466130af565b5b021790555080600460008473ffffffffffffffffffffffffffffffffffffffff1673ffffffffffffffffffffffffffffffffffffffff1681526020019081526020016000206000820160009054906101000a900460ff168160000160006101000a81548160ff021916908360018111156123c4576123c36130af565b5b02179055506000820160019054906101000a900460ff168160000160016101000a81548160ff02191690836001811115612401576124006130af565b5b02179055506000820160029054906101000a900460ff168160000160026101000a81548160ff0219169083600181111561243e5761243d6130af565b5b02179055506000820160039054906101000a900460ff168160000160036101000a81548160ff0219169083600181111561247b5761247a6130af565b5b02179055506000820160049054906101000a900460ff168160000160046101000a81548160ff021916908360018111156124b8576124b76130af565b5b02179055506000820160059054906101000a900460ff168160000160056101000a81548160ff021916908360018111156124f5576124f46130af565b5b02179055506000820160069054906101000a900460ff168160000160066101000a81548160ff02191690836001811115612532576125316130af565b5b0217905550905050505050505050505050565b61254d612e9f565b600460008373ffffffffffffffffffffffffffffffffffffffff1673ffffffffffffffffffffffffffffffffffffffff1681526020019081526020016000206040518060e00160405290816000820160009054906101000a900460ff1660018111156125bc576125bb6130af565b5b60018111156125ce576125cd6130af565b5b81526020016000820160019054906101000a900460ff1660018111156125f7576125f66130af565b5b6001811115612609576126086130af565b5b81526020016000820160029054906101000a900460ff166001811115612632576126316130af565b5b6001811115612644576126436130af565b5b81526020016000820160039054906101000a900460ff16600181111561266d5761266c6130af565b5b600181111561267f5761267e6130af565b5b81526020016000820160049054906101000a900460ff1660018111156126a8576126a76130af565b5b60018111156126ba576126b96130af565b5b81526020016000820160059054906101000a900460ff1660018111156126e3576126e26130af565b5b60018111156126f5576126f46130af565b5b81526020016000820160069054906101000a900460ff16600181111561271e5761271d6130af565b5b60018111156127305761272f6130af565b5b815250509050919050565b6000600560003373ffffffffffffffffffffffffffffffffffffffff1673ffffffffffffffffffffffffffffffffffffffff1681526020019081526020016000209050600660003373ffffffffffffffffffffffffffffffffffffffff1673ffffffffffffffffffffffffffffffffffffffff16815260200190815260200160002060009054906101000a900460ff1661280a576040517f08c379a0000000000000000000000000000000000000000000000000000000008152600401612801906140ca565b60405180910390fd5b83816002015414612850576040517f08c379a000000000000000000000000000000000000000000000000000000000815260040161284790614136565b60405180910390fd5b816002811115612863576128626130af565b5b8160050160009054906101000a900460ff166002811115612887576128866130af565b5b146128c7576040517f08c379a00000000000000000000000000000000000000000000000000000000081526004016128be906141a2565b60405180910390fd5b806006016040516020016128db9190614261565b604051602081830303815290604052805190602001208360405160200161290291906142a9565b6040516020818303038152906040528051906020012014612958576040517f08c379a000000000000000000000000000000000000000000000000000000000815260040161294f9061430c565b60405180910390fd5b60018160070160006101000a81548160ff0219169083151502179055503373ffffffffffffffffffffffffffffffffffffffff167fb030862c134ac5bde9838ba1b144241cd0fd1465f1ea17bad7bbb1353d127c5d82600201546040516129bf919061432c565b60405180910390a250505050565b6000600560003373ffffffffffffffffffffffffffffffffffffffff1673ffffffffffffffffffffffffffffffffffffffff16815260200190815260200160002060070160009054906101000a900460ff16905090565b60026020528060005260406000206000915054906101000a900473ffffffffffffffffffffffffffffffffffffffff1681565b612a5f612e0f565b600360008373ffffffffffffffffffffffffffffffffffffffff1673ffffffffffffffffffffffffffffffffffffffff1681526020019081526020016000206040518060c00160405290816000820160009054906101000a900460ff166002811115612ace57612acd6130af565b5b6002811115612ae057612adf6130af565b5b81526020016000820160019054906101000a900460ff166002811115612b0957612b086130af565b5b6002811115612b1b57612b1a6130af565b5b81526020016000820160029054906101000a900460ff166002811115612b4457612b436130af565b5b6002811115612b5657612b556130af565b5b81526020016000820160039054906101000a900460ff166002811115612b7f57612b7e6130af565b5b6002811115612b9157612b906130af565b5b81526020016000820160049054906101000a900460ff166001811115612bba57612bb96130af565b5b6001811115612bcc57612bcb6130af565b5b8152602001600182018054612be090613e4f565b80601f0160208091040260200160405190810160405280929190818152602001828054612c0c90613e4f565b8015612c595780601f10612c2e57610100808354040283529160200191612c59565b820191906000526020600020905b815481529060010190602001808311612c3c57829003601f168201915b5050505050815250509050919050565b828054612c7590613e4f565b90600052602060002090601f016020900481019282612c975760008555612cde565b82601f10612cb057805160ff1916838001178555612cde565b82800160010185558215612cde579182015b82811115612cdd578251825591602001919060010190612cc2565b5b509050612ceb9190612f5a565b5090565b828054612cfb90613e4f565b90600052602060002090601f016020900481019282612d1d5760008555612d6b565b82601f10612d2e5780548555612d6b565b82800160010185558215612d6b57600052602060002091601f016020900482015b82811115612d6a578254825591600101919060010190612d4f565b5b509050612d789190612f5a565b5090565b604051806101400160405280606081526020016060815260200160008152602001606081526020016060815260200160006002811115612dbf57612dbe6130af565b5b815260200160608152602001600015158152602001600073ffffffffffffffffffffffffffffffffffffffff168152602001600073ffffffffffffffffffffffffffffffffffffffff1681525090565b6040518060c0016040528060006002811115612e2e57612e2d6130af565b5b815260200160006002811115612e4757612e466130af565b5b815260200160006002811115612e6057612e5f6130af565b5b815260200160006002811115612e7957612e786130af565b5b815260200160006001811115612e9257612e916130af565b5b8152602001606081525090565b6040518060e0016040528060006001811115612ebe57612ebd6130af565b5b815260200160006001811115612ed757612ed66130af565b5b815260200160006001811115612ef057612eef6130af565b5b815260200160006001811115612f0957612f086130af565b5b815260200160006001811115612f2257612f216130af565b5b815260200160006001811115612f3b57612f3a6130af565b5b815260200160006001811115612f5457612f536130af565b5b81525090565b5b80821115612f73576000816000905550600101612f5b565b5090565b6000604051905090565b600080fd5b600080fd5b6000819050919050565b612f9e81612f8b565b8114612fa957600080fd5b50565b600081359050612fbb81612f95565b92915050565b600060208284031215612fd757612fd6612f81565b5b6000612fe584828501612fac565b91505092915050565b60008115159050919050565b61300381612fee565b82525050565b600060208201905061301e6000830184612ffa565b92915050565b600073ffffffffffffffffffffffffffffffffffffffff82169050919050565b600061304f82613024565b9050919050565b61305f81613044565b811461306a57600080fd5b50565b60008135905061307c81613056565b92915050565b60006020828403121561309857613097612f81565b5b60006130a68482850161306d565b91505092915050565b7f4e487b7100000000000000000000000000000000000000000000000000000000600052602160045260246000fd5b600381106130ef576130ee6130af565b5b50565b6000819050613100826130de565b919050565b6000613110826130f2565b9050919050565b61312081613105565b82525050565b60028110613137576131366130af565b5b50565b600081905061314882613126565b919050565b60006131588261313a565b9050919050565b6131688161314d565b82525050565b600081519050919050565b600082825260208201905092915050565b60005b838110156131a857808201518184015260208101905061318d565b838111156131b7576000848401525b50505050565b6000601f19601f8301169050919050565b60006131d98261316e565b6131e38185613179565b93506131f381856020860161318a565b6131fc816131bd565b840191505092915050565b600060c08201905061321c6000830189613117565b6132296020830188613117565b6132366040830187613117565b6132436060830186613117565b613250608083018561315f565b81810360a083015261326281846131ce565b9050979650505050505050565b600060e082019050613284600083018a61315f565b613291602083018961315f565b61329e604083018861315f565b6132ab606083018761315f565b6132b8608083018661315f565b6132c560a083018561315f565b6132d260c083018461315f565b98975050505050505050565b600381106132eb57600080fd5b50565b6000813590506132fd816132de565b92915050565b6002811061331057600080fd5b50565b60008135905061332281613303565b92915050565b600080fd5b600080fd5b7f4e487b7100000000000000000000000000000000000000000000000000000000600052604160045260246000fd5b61336a826131bd565b810181811067ffffffffffffffff8211171561338957613388613332565b5b80604052505050565b600061339c612f77565b90506133a88282613361565b919050565b600067ffffffffffffffff8211156133c8576133c7613332565b5b6133d1826131bd565b9050602081019050919050565b82818337600083830152505050565b60006134006133fb846133ad565b613392565b90508281526020810184848401111561341c5761341b61332d565b5b6134278482856133de565b509392505050565b600082601f83011261344457613443613328565b5b81356134548482602086016133ed565b91505092915050565b600080600080600080600060e0888a03121561347c5761347b612f81565b5b600061348a8a828b016132ee565b975050602061349b8a828b016132ee565b96505060406134ac8a828b016132ee565b95505060606134bd8a828b016132ee565b94505060806134ce8a828b01613313565b93505060a088013567ffffffffffffffff8111156134ef576134ee612f86565b5b6134fb8a828b0161342f565b92505060c061350c8a828b0161306d565b91505092959891949750929550565b600082825260208201905092915050565b60006135378261316e565b613541818561351b565b935061355181856020860161318a565b61355a816131bd565b840191505092915050565b61356e81612f8b565b82525050565b60038110613585576135846130af565b5b50565b600081905061359682613574565b919050565b60006135a682613588565b9050919050565b6135b68161359b565b82525050565b6135c581612fee565b82525050565b6135d481613044565b82525050565b60006101408301600083015184820360008601526135f8828261352c565b91505060208301518482036020860152613612828261352c565b91505060408301516136276040860182613565565b506060830151848203606086015261363f828261352c565b91505060808301518482036080860152613659828261352c565b91505060a083015161366e60a08601826135ad565b5060c083015184820360c0860152613686828261352c565b91505060e083015161369b60e08601826135bc565b506101008301516136b06101008601826135cb565b506101208301516136c56101208601826135cb565b508091505092915050565b600060208201905081810360008301526136ea81846135da565b905092915050565b600081519050919050565b600082825260208201905092915050565b6000819050602082019050919050565b600061014083016000830151848203600086015261373c828261352c565b91505060208301518482036020860152613756828261352c565b915050604083015161376b6040860182613565565b5060608301518482036060860152613783828261352c565b9150506080830151848203608086015261379d828261352c565b91505060a08301516137b260a08601826135ad565b5060c083015184820360c08601526137ca828261352c565b91505060e08301516137df60e08601826135bc565b506101008301516137f46101008601826135cb565b506101208301516138096101208601826135cb565b508091505092915050565b6000613820838361371e565b905092915050565b6000602082019050919050565b6000613840826136f2565b61384a81856136fd565b93508360208202850161385c8561370e565b8060005b8581101561389857848403895281516138798582613814565b945061388483613828565b925060208a01995050600181019050613860565b50829750879550505050505092915050565b600060208201905081810360008301526138c48184613835565b905092915050565b600381106138d957600080fd5b50565b6000813590506138eb816138cc565b92915050565b600080600080600080600060e0888a0312156139105761390f612f81565b5b600088013567ffffffffffffffff81111561392e5761392d612f86565b5b61393a8a828b0161342f565b975050602088013567ffffffffffffffff81111561395b5761395a612f86565b5b6139678a828b0161342f565b96505060406139788a828b01612fac565b955050606088013567ffffffffffffffff81111561399957613998612f86565b5b6139a58a828b0161342f565b945050608088013567ffffffffffffffff8111156139c6576139c5612f86565b5b6139d28a828b0161342f565b93505060a06139e38a828b016138dc565b92505060c088013567ffffffffffffffff811115613a0457613a03612f86565b5b613a108a828b0161342f565b91505092959891949750929550565b6000819050919050565b613a3281613a1f565b8114613a3d57600080fd5b50565b600081359050613a4f81613a29565b92915050565b600060208284031215613a6b57613a6a612f81565b5b6000613a7984828501613a40565b91505092915050565b613a8b81612f8b565b82525050565b613a9a8161359b565b82525050565b613aa981613044565b82525050565b6000610140820190508181036000830152613aca818d6131ce565b90508181036020830152613ade818c6131ce565b9050613aed604083018b613a82565b8181036060830152613aff818a6131ce565b90508181036080830152613b1381896131ce565b9050613b2260a0830188613a91565b81810360c0830152613b3481876131ce565b9050613b4360e0830186612ffa565b613b51610100830185613aa0565b613b5f610120830184613aa0565b9b9a5050505050505050505050565b600080600080600080600080610100898b031215613b8f57613b8e612f81565b5b6000613b9d8b828c01613313565b9850506020613bae8b828c01613313565b9750506040613bbf8b828c01613313565b9650506060613bd08b828c01613313565b9550506080613be18b828c01613313565b94505060a0613bf28b828c01613313565b93505060c0613c038b828c01613313565b92505060e0613c148b828c0161306d565b9150509295985092959890939650565b613c2d8161314d565b82525050565b60e082016000820151613c496000850182613c24565b506020820151613c5c6020850182613c24565b506040820151613c6f6040850182613c24565b506060820151613c826060850182613c24565b506080820151613c956080850182613c24565b5060a0820151613ca860a0850182613c24565b5060c0820151613cbb60c0850182613c24565b50505050565b600060e082019050613cd66000830184613c33565b92915050565b600080600060608486031215613cf557613cf4612f81565b5b6000613d0386828701612fac565b935050602084013567ffffffffffffffff811115613d2457613d23612f86565b5b613d308682870161342f565b9250506040613d41868287016138dc565b9150509250925092565b6000602082019050613d606000830184613aa0565b92915050565b613d6f81613105565b82525050565b600060c083016000830151613d8d6000860182613d66565b506020830151613da06020860182613d66565b506040830151613db36040860182613d66565b506060830151613dc66060860182613d66565b506080830151613dd96080860182613c24565b5060a083015184820360a0860152613df1828261352c565b9150508091505092915050565b60006020820190508181036000830152613e188184613d75565b905092915050565b7f4e487b7100000000000000000000000000000000000000000000000000000000600052602260045260246000fd5b60006002820490506001821680613e6757607f821691505b602082108103613e7a57613e79613e20565b5b50919050565b7f5573756172696f206e6f20656e636f6e747261646f0000000000000000000000600082015250565b6000613eb6601583613179565b9150613ec182613e80565b602082019050919050565b60006020820190508181036000830152613ee581613ea9565b9050919050565b7f456c207573756172696f20796120657869737465000000000000000000000000600082015250565b6000613f22601483613179565b9150613f2d82613eec565b602082019050919050565b60006020820190508181036000830152613f5181613f15565b9050919050565b60008160601b9050919050565b6000613f7082613f58565b9050919050565b6000613f8282613f65565b9050919050565b613f9a613f9582613044565b613f77565b82525050565b6000819050919050565b613fbb613fb682613a1f565b613fa0565b82525050565b6000613fcd8285613f89565b601482019150613fdd8284613faa565b6020820191508190509392505050565b6000613ff98284613f89565b60148201915081905092915050565b600060c082019050818103600083015261402281896131ce565b90506140316020830188613a82565b818103604083015261404381876131ce565b90506140526060830186613a91565b818103608083015261406481856131ce565b905061407360a0830184612ffa565b979650505050505050565b7f456c207573756172696f206e6f20657869737465000000000000000000000000600082015250565b60006140b4601483613179565b91506140bf8261407e565b602082019050919050565b600060208201905081810360008301526140e3816140a7565b9050919050565b7f446f63756d656e746f20696e636f72726563746f000000000000000000000000600082015250565b6000614120601483613179565b915061412b826140ea565b602082019050919050565b6000602082019050818103600083015261414f81614113565b9050919050565b7f526f6c20696e636f72726563746f000000000000000000000000000000000000600082015250565b600061418c600e83613179565b915061419782614156565b602082019050919050565b600060208201905081810360008301526141bb8161417f565b9050919050565b600081905092915050565b60008190508160005260206000209050919050565b600081546141ef81613e4f565b6141f981866141c2565b94506001821660008114614214576001811461422557614258565b60ff19831686528186019350614258565b61422e856141cd565b60005b8381101561425057815481890152600182019150602081019050614231565b838801955050505b50505092915050565b600061426d82846141e2565b915081905092915050565b60006142838261316e565b61428d81856141c2565b935061429d81856020860161318a565b80840191505092915050565b60006142b58284614278565b915081905092915050565b7f436f6e74726173656e6120696e636f7272656374610000000000000000000000600082015250565b60006142f6601583613179565b9150614301826142c0565b602082019050919050565b60006020820190508181036000830152614325816142e9565b9050919050565b60006020820190506143416000830184613a82565b9291505056fea26469706673582212205e5dd1ef11c0fc455f4e3a52ad2dae2cb09ce9b80dc7f979271423ce5d94964964736f6c634300080d0033",
  "immutableReferences": {},
  "source": "// SPDX-License-Identifier: MIT\npragma solidity ^0.8.13;\npragma experimental ABIEncoderV2;\n\n// A library is like a contract with reusable code, which can be called by other contracts.\n// Deploying common code can reduce gas costs.\ncontract ManagementUser {\n    enum Rol {\n        admin,\n        doctor,\n        patient\n    }\n    enum Opciones {\n        Nunca,\n        Ocasionalmete,\n        Frecuetemente\n    }\n    enum Affirmations {\n        Si,\n        No\n    }\n    enum Estatus {\n        pendientes,\n        programadas\n    }\n    /* Antecedentes personales*/\n    struct MedicalHistory {\n        Opciones alcohol;\n        Opciones smoke;\n        Opciones physical_activity;\n        Opciones contraceptives;\n        Affirmations fracture;\n        string surgery;\n    }\n    /* Antecedentes familiares*/\n    struct FamilyHistory {\n        Affirmations diabetes;\n        Affirmations hypertension;\n        Affirmations heart;\n        Affirmations respiratory;\n        Affirmations alzheimer;\n        Affirmations cardiovascular;\n        Affirmations cancer;\n    }\n\n    struct User {\n        string name;\n        string birthdate;\n        int document;\n        string date_document;\n        string email;\n        Rol role;\n        string passwordHash;\n        bool isAuthenticated; // Nuevo campo para el estado de autenticacin\n        address medicalHistoryAddress; // Direccin para acceder a los antecedentes mdicos\n        address familyHistoryAddress; // Direccin para acceder a los antecedentes familiares\n    }\n    User[] public usuariosRegistrados; // Lista de direcciones de usuarios registrados\n\n    // Mapping para comprobar si un nmero de documento ya existe\n    mapping(int => bool) public documentExists;\n    // Mapeo de documentos a direcciones\n    mapping(int => address) public documentToAddress;\n    mapping(address => MedicalHistory) public medicalHistories;\n    mapping(address => FamilyHistory) public familyHistories;\n    mapping(address => User) public users;\n    mapping(address => bool) public isUser;\n\n    event UserAuthenticated(address indexed userAddress, int document);\n    event NewUser(\n        address indexed _address,\n        string _name,\n        int _document,\n        string _expedition_documente,\n        Rol _role,\n        string _passwordHash,\n        bool _isAuthenticated\n    );\n\n    /* Crea el usuario */\n    function createUser(\n        string memory _name,\n        string memory _birthdate,\n        int _document,\n        string memory _date_document,\n        string memory _email,\n        Rol _role,\n        string memory _passwordHash\n    ) public {\n        require(!documentExists[_document], \"El usuario ya existe\");\n        // Crear una instancia de antecedentes mdicos vaca y vincularla al usuario\n        MedicalHistory memory emptyMedicalHistory;\n        address medicalHistoryAddress = address(\n            bytes20(keccak256(abi.encodePacked(msg.sender, block.timestamp)))\n        );\n        medicalHistories[medicalHistoryAddress] = emptyMedicalHistory;\n        // Crear una instancia de antecedentes familia vaca y vincularla al usuario\n        FamilyHistory memory emptyFamilyHistory;\n        address familyHistoryAddress = address(\n            bytes20(keccak256(abi.encodePacked(msg.sender)))\n        );\n        familyHistories[familyHistoryAddress] = emptyFamilyHistory;\n\n        //Guardar usuario\n        users[msg.sender] = User(\n            _name,\n            _birthdate,\n            _document,\n            _date_document,\n            _email,\n            _role,\n            _passwordHash,\n            false,\n            medicalHistoryAddress,\n            familyHistoryAddress\n        );\n        isUser[msg.sender] = true;\n        documentExists[_document] = true;\n        documentToAddress[_document] = msg.sender;\n        usuariosRegistrados.push(users[msg.sender]);\n        emit NewUser(\n            msg.sender,\n            _name,\n            _document,\n            _date_document,\n            _role,\n            _passwordHash,\n            false\n        );\n    }\n\n    // Autenticar al usuario\n    function authenticateUser(\n        int _document,\n        string memory _password,\n        Rol _role\n    ) public {\n        User storage user = users[msg.sender];\n        require(isUser[msg.sender], \"El usuario no existe\");\n        require(user.document == _document, \"Documento incorrecto\"); // Comprueba el documento\n        require(user.role == _role, \"Rol incorrecto\"); // Comprueba el rol del usuario\n\n        // Comparar el hash de la contrasea ingresada con el hash almacenado\n        require(\n            keccak256(abi.encodePacked(_password)) ==\n                keccak256(abi.encodePacked(user.passwordHash)),\n            \"Contrasena incorrecta\"\n        );\n\n        user.isAuthenticated = true;\n        emit UserAuthenticated(msg.sender, user.document);\n    }\n\n    function setFamilyHistory(\n        Affirmations diabetes,\n        Affirmations hypertension,\n        Affirmations heart,\n        Affirmations respiratory,\n        Affirmations alzheimer,\n        Affirmations cardiovascular,\n        Affirmations cancer,\n        address familyHistoryAddress\n    ) public {\n        // Accede a los antecedentes mdicos del usuario actual\n        FamilyHistory storage userFamilyHistory = familyHistories[\n            familyHistoryAddress\n        ];\n\n        userFamilyHistory.diabetes = diabetes;\n        userFamilyHistory.hypertension = hypertension;\n        userFamilyHistory.heart = heart;\n        userFamilyHistory.respiratory = respiratory;\n        userFamilyHistory.alzheimer = alzheimer;\n        userFamilyHistory.cardiovascular = cardiovascular;\n        userFamilyHistory.cancer = cancer;\n\n        // Actualiza los antecedentes mdicos en el contrato\n        familyHistories[familyHistoryAddress] = userFamilyHistory;\n    }\n\n    function setMedicalHistory(\n        Opciones alcohol,\n        Opciones smoke,\n        Opciones physical_activity,\n        Opciones contraceptives,\n        Affirmations fracture,\n        string memory surgery,\n        address medicalHistoryAddress\n    ) public {\n        // Accede a los antecedentes mdicos del usuario actual\n        MedicalHistory storage userMedicalHistory = medicalHistories[\n            medicalHistoryAddress\n        ];\n\n        userMedicalHistory.alcohol = alcohol;\n        userMedicalHistory.smoke = smoke;\n        userMedicalHistory.physical_activity = physical_activity;\n        userMedicalHistory.contraceptives = contraceptives;\n        userMedicalHistory.fracture = fracture;\n        userMedicalHistory.surgery = surgery;\n\n        // Actualiza los antecedentes mdicos en el contrato\n        medicalHistories[medicalHistoryAddress] = userMedicalHistory;\n    }\n\n    function getFamilyHistoryAddress(\n        address familyHistoryAddress\n    ) public view returns (FamilyHistory memory) {\n        return familyHistories[familyHistoryAddress];\n    }\n\n    function getMedicalHistoryAddress(\n        address medicalHistoryAddress\n    ) public view returns (MedicalHistory memory) {\n        return medicalHistories[medicalHistoryAddress];\n    }\n\n    /* Consulta todos los nombre de los usuarios */\n    function getAllUserNames() public view returns (User[] memory) {\n        return usuariosRegistrados;\n    }\n\n    function isUserAuthenticated() public view returns (bool) {\n        return users[msg.sender].isAuthenticated;\n    }\n\n    // Funcin para consultar informacin de un usuario por documento\n    function getUserInfoByDocument(\n        int document\n    ) public view returns (User memory) {\n        address userAddress = documentToAddress[document];\n        require(userAddress != address(0), \"Usuario no encontrado\");\n        User memory user = users[userAddress];\n        return user;\n    }\n}\n",
  "sourcePath": "C:\\wamp64\\www\\Historia clinica\\blockchain\\contracts\\ManagementUser.sol",
  "compiler": {
    "name": "solc",
    "version": "0.8.13+commit.abaa5c0e.Emscripten.clang"
  },
  "schemaVersion": "3.4.16",
  "updatedAt": "2023-11-24T16:58:54.118Z",
  "networkType": "ethereum",
  "devdoc": {
    "kind": "dev",
    "methods": {},
    "version": 1
  },
  "userdoc": {
    "kind": "user",
    "methods": {},
    "version": 1
  }
}